:020000040800F2
:10000000682D0020D90100084D6B0008F55F00083D
:10001000456B0008891D00083F91000800000000A2
:100020000000000000000000000000007D700008DB
:100030003B24000800000000416E00087F700008AB
:10004000F3010008F3010008F3010008F3010008C0
:10005000F3010008F3010008F3010008F3010008B0
:10006000F3010008F3010008F3010008F3010008A0
:10007000F3010008F3010008F3010008F301000890
:10008000F3010008F3010008F3010008F301000880
:10009000F3010008F3010008F30100083D24000803
:1000A000F3010008F3010008F3010008F301000860
:1000B0002972000879720008A1720008F301000893
:1000C000F3010008F3010008F3010008F301000840
:1000D000F3010008F3010008F3010008F301000830
:1000E000F3010008F3010008F3010008F301000820
:1000F000F3010008F3010008F3010008F301000810
:10010000F3010008F3010008F3010008F3010008FF
:10011000F3010008F3010008F3010008F3010008EF
:10012000F3010008F3010008F3010008F3010008DF
:10013000F30100080000000000000000F3010008C7
:10014000F3010008F3010008F3010008896B0008BF
:10015000F3010008F3010008F3010008F3010008AF
:10016000F3010008F3010008F3010008F30100089F
:10017000F3010008F3010008F3010008000000008B
:1001800000000000F3010008000000000000000073
:10019000F30100080000000000000000F301000867
:1001A000000000000000000000000000F301000853
:1001B000F3010008F3010008F3010008F30100084F
:1001C000F3010008DFF80CD000F0B4FC0048004751
:1001D000799F0008682D00200648804706480047A0
:1001E000FEE7FEE7FEE7FEE7FEE7FEE7FEE7FEE7E7
:1001F000FEE7FEE77D710008C501000840EA010343
:100200009B0703D009E008C9121F08C0042AFAD2CC
:1002100003E011F8013B00F8013B521EF9D2704790
:10022000F0B480EA0102D40F4200B2EB410F02D2D7
:100230000246084611464A0042D0C30DDDB2C1F362
:10024000C752AD1A202D35DAC1F3160141F4000270
:1002500004B15242C5F1200602FA06F12A411044C7
:10026000B3EBD05F23D0C4B1012DA0EBC35009DCA8
:10027000F0BC4FF0004202EAC352DBB200F50000CE
:1002800000F020BB400000F1807000EBC350A0F1F3
:10029000807040EAD170490009E0490841EAC07124
:1002A000A0EBC35000F50000400800EBC350F0BCC9
:1002B00000F0FFBA6142012202EB4101001BF6E7A8
:1002C000F0BC704781F00041AAE780F00040A7E74A
:1002D00080EA010210B502F00043400022D04A003B
:1002E0001FD0010E01EB1261C0F35600C2F356029B
:1002F00040F4000042F40002A0FB022000047F3919
:10030000140400D0401C50EA124001D44000491EA1
:10031000C2B20C0604EBD010401C4008802A02D068
:1003200003E0002010BD20F00100002900DA0020C9
:10033000184310BD30B480EA010202F0004530F0ED
:10034000004221F0004013D090B1C30DD40DC2F390
:100350001601C0F31600E41A41F4000140F4000253
:100360007D34914201D3641C00E04900002C02DA84
:1003700030BC002070474FF400000023914201D3AD
:10038000891A034340084FEA4101F7D151B1914224
:1003900002D14FF0004105E002D24FF0010101E02F
:1003A0006FF0010103EBC450284430BC00F081BA67
:1003B0002DE9FE4F804681EA0300C00F0C460090F5
:1003C00021F0004123F00045B8EB0200A94105D21D
:1003D0004046214690461C460B46024623F000400C
:1003E000104347D0270DC7F30A00C3F30A51029008
:1003F000401A019040286BDAC3F3130040F4801BCD
:100400000098924620B10023D2EB030A63EB0B0B5A
:1004100001985946C0F14002504600F019FA0646CC
:100420000D4650465946019A00F031FA10EB08008B
:100430006141002487EA115284EAE7731A4340D0ED
:10044000009A62B3019A012A4FEA075215DC001B99
:1004500061EB02014FF0004202EA0752CDE900428F
:10046000001C41F5801132462B4600F068FA03B0BB
:10047000BDE8F08F40462146F9E7001B61EB020121
:10048000001C41F5801300185B412018A2F50017ED
:1004900047EB030140EAD570B6196D4111E06D08D4
:1004A0004FEA360645EAC0754FEA0752001B61EB7A
:1004B0000201001C41F5801149084FEA3000001983
:1004C000514132462B4603B0BDE8F04F00F028BA48
:1004D0000098012240000023D0EB020263EBE0739E
:1004E000009821464FEAE074B8EB000061EB04018C
:1004F000E9E783F000435BE781F0004158E72DE92D
:10050000FE4F81EA030404F0004421F0004100940E
:100510004FF0000B23F0004350EA01045ED052EA92
:1005200003045BD0C3F30A54C1F30A552C44A4F26C
:10053000F3340194A0FB0254C1F3130141F4801180
:10054000C3F3130343F4801301FB024400FB034E87
:10055000840A970A44EA815447EA8357A4FB076850
:1005600002958D0A05FB07854FEA932C04FB0C547A
:100570002705029D4FEA065847EA1637B5EB0805EE
:100580006EEB070C870E920E47EA811742EA831240
:10059000A7FB0201B6EB0B0164EB00042B0D43EA51
:1005A0000C335E1844EB1C50DA465146E7FB02015F
:1005B000C5F313044FEA0B3343EA14534FEA0432F2
:1005C000019C43EA0603A4F10C040294009CCDE9CB
:1005D00000B400F0B4F903B0BDE8F08F002001468C
:1005E000F9E72DE9F04D81EA030404F0004B21F016
:1005F000004514464FF0000A23F0004150EA05027E
:1006000020D054EA01021DD0C5F30A570246C5F3B3
:100610001303C1F31300C1F30A5640F4801543F4E9
:100620008013A7EB0608101BD64608F2FD3873EBC3
:10063000050002D308F1010801E092185B41B8F10E
:10064000000F03DA00200146BDE8F08D00204FF4D2
:100650008011064684460EE0171B73EB050705D391
:10066000121B63EB050306434CEA010C49084FEAF1
:10067000300092185B4150EA0107EDD152EA0300C5
:1006800012D082EA040083EA0501084305D0101B5A
:10069000AB4106D20122002306E000224FF00043C6
:1006A00002E06FF0010253101AEB06004CEB085108
:1006B00010EB0A0041EB0B01BDE8F04D00F030B942
:1006C000C10F80EAE0700844CA079623002100F0B9
:1006D000F9B896230022114600F0F4B80EB540F2A6
:1006E000334102910021CDE900110A460B4600F08A
:1006F00026F903B000BD00F0004220F00040C10D1B
:10070000C0F3160040F400007F2901DA0020704792
:10071000962903DCC1F19601C84001E09639884072
:10072000002AF4D04042704770B5C1F30A5201F07C
:1007300000450024C1F3130140F2FF3341F480115E
:100740009A4201DA002070BD40F233439A42A2F28D
:10075000334203DC524200F08AF800E090402C4320
:10076000F1D0404270BDC1F30A5210B5C1F313017C
:1007700040F2FF3341F480119A4201DA002010BDAB
:1007800040F233439A42A2F2334203DC524200F079
:100790006EF810BD904010BD00F0004230F00040F7
:1007A0000AD0C10D01F56071C0F3160042EA015193
:1007B000C2084007114370470020014670470000FF
:1007C00030B5041E71F1000404DB4FF000444042D8
:1007D00064EB0101141E73F1000405DB1C464FF0AD
:1007E0000043524263EB04038B4208BF824230BD98
:1007F00001F0004330B421F0004150EA010206D07C
:100800000A0DA2F56072C1F31301002A02DC30BCAC
:1008100000207047440F44EAC104C100E01830BC16
:1008200000EBC25000F045B8002801DBC0F10040E9
:10083000002901DBC1F1004181427047002801DB42
:10084000C0F10040002901DBC1F10041884270473E
:10085000202A04DB203A00FA02F100207047914080
:10086000C2F1200320FA03F3194390407047202A75
:1008700004DB203A21FA02F00021704721FA02F34A
:10088000D040C2F120029140084319467047202A07
:1008900006DBCB17203A41FA02F043EAE07306E0A8
:1008A00041FA02F3D040C2F12002914008431946B8
:1008B00070470029A8BF7047401C490008BF20F0BE
:1008C0000100704710B4B0FA80FC00FA0CF050EA56
:1008D000010404BF10BC704749B1CCF1200421FAD7
:1008E00004F411FA0CF118BF012121430843A3EBD2
:1008F0000C01CB1D4FEA00614FEA102042BF0020DF
:1009000010BC704700EBC35010440029A4BF10BCBA
:100910007047401C490008BF20F0010010BC704720
:1009200010B5141E73F1000408DA401C41F10001F7
:1009300092185B411A4301D120F0010010BD2DE94E
:10094000F04D92469B4611B1B1FA81F202E0B0FA45
:1009500080F220329046FFF77BFF04460F4640EAC4
:100960000A0041EA0B0153465A46084313D0114688
:1009700053EA010019D0C8F140025046FFF777FF53
:1009800005460E46504659464246FFF761FF08436A
:1009900005D0012004E020463946BDE8F08D002056
:1009A000054346EAE0762C4337430A986305E40A98
:1009B000A0EB08000022FD0A44EA47540A3002D5A1
:1009C00000200146E9E7010510196941DDE9084504
:1009D00000196941BDE8F04DA2E72DE9F04D002373
:1009E0001A461B1A8A4103DB00200146BDE8F08D40
:1009F000C1F30A52C1F3130141F480154FF0000B0B
:100A0000D10702D100186D41521E0027044640F262
:100A1000FF11384601EB620A3E468046024600203E
:100A20004FF48011FFF723FFC2197141BB1846EB49
:100A30000100B4EB030C75EB000C04D3E41A65EB76
:100A4000000517460E46241908F101006D41804645
:100A50003428E3DDF91946EB0600091BA84103D24F
:100A60004FF0FF32134601E0002213461BEB070054
:100A700046EB0A51BDE8F04DFFF752BF2DE9F041BA
:100A8000054621F000400C46284309D0C4F30A5023
:100A900040F23341884205DD28462146BDE8F08119
:100AA0002846FBE740F2FE31884210DC0CDB4FEABF
:100AB000043040EA155050EA053105D0104804F0E2
:100AC000004101430020E9E700200146E6E7A0F2EB
:100AD00033404642C6F1400228462146FFF7B8FEA1
:100AE00007468846284621463246FFF7C0FE434661
:100AF0003A46FFF715FF3246BDE8F041FFF7A8BEC2
:100B00000000F03F30B5041E71F1000404DB4FF02B
:100B10000044404264EB0101141E73F1000405DB44
:100B20001C464FF00043524263EB0403994208BF56
:100B3000904230BD064C074D06E0E06840F00103EE
:100B400094E8070098471034AC42F6D3FFF73EFB19
:100B500088C40008A8C4000870B58C1810F8015BA0
:100B600015F0070301D110F8013B2A1106D110F846
:100B7000012B03E010F8016B01F8016B5B1EF9D14A
:100B80002B0705D40023521E0DD401F8013BFAE7D0
:100B900010F8013BCB1A921C03E013F8015B01F83B
:100BA000015B521EF9D5A142D8D3002070BD0000D0
:100BB0002DE9FC41074607F0030740F2FF35012607
:100BC000172002F033FE01222021FE4802F002F835
:100BD00027B1012F7ED0022F7DD1B1E1002444F452
:100BE0000044E443F848406820400190F6480199E9
:100BF00001F062F8F548406820400190F3480199FF
:100C000001F05AF8F248416801F056F8002444F027
:100C1000C004E443EF48406820400190ED4801994A
:100C200001F04AF840F2FF350020019045F4803091
:100C3000019908430190E848019901F03DF800242A
:100C400044F00704E54840682040002834D00024E0
:100C500044F03C04E443DF484068204001900198A0
:100C600040F018000190DB48019901F025F80022BE
:100C70002021D44801F0AEFF01200090012608E0B9
:100C80004FF40041D64801F099FF06460EB9002006
:100C9000009000980028F3D1D248D3490860002082
:100CA000019001A9D048006800F026FFCD490198C5
:100CB0004860CE4901980860002444F03C04E443B5
:100CC000C448406820400190019840F01400019011
:100CD000C04801E05DE03AE2019900F0EDFF00223A
:100CE0002021B84801F076FF01200090012608E09D
:100CF0004FF40041BA4801F061FF06460EB90020EA
:100D0000009000980028F3D1B148B749086000204E
:100D1000019001A9B448006800F0EEFEAC490198CA
:100D20004860B34901980860002444F03C04E4435F
:100D3000A848406820400190A648019900F0BCFFF7
:100D4000002444F40044A0484068204301909E4899
:100D5000019900F0B1FF9D484068204301909B48F5
:100D6000019900F0A9FF002444F0C00499484068AC
:100D7000204301909748019900F09EFF00200190C8
:100D80009C490198084301909348019900F094FF11
:100D9000DEE1002444F40044E443974840682040E6
:100DA00001909548019900F087FF884840682040ED
:100DB00001908648019900F07FFF9048416800F05B
:100DC0007BFF002444F0C004E44382484068204094
:100DD00001908048019900F06FFF40F2FF3500203C
:100DE000019045F4803001990843019084480199AD
:100DF00000F062FF002444F007048248406820406D
:100E0000A0B3002444F03C04E4437248406820400E
:100E10000190019840F0180001906E48019900F08F
:100E20004BFF00222021674801F0D4FE01200090F2
:100E3000012608E04FF40041694801F0BFFE064674
:100E40000EB90020009000980028F3D16E48664942
:100E500008600020019001A96348006800F04CFE82
:100E6000694901984860694901980860002444F084
:100E70003C04E4435748406820400190019840F00A
:100E8000140001905348019900F016FF0022202120
:100E90004C4801F09FFE01200090012608E04FF42D
:100EA00000414F4801F08AFE06460EB9002000902E
:100EB00000980028F3D151484B4908600020019068
:100EC00001A94948006800F017FE4C4901984860A4
:100ED0004F4901980860002444F03C04E4433D4835
:100EE0004068204001903B48019900F0E5FE002455
:100EF00044F4004440484068204301903E48019932
:100F000000F0DAFE31484068204301902F480199F3
:100F100000F0D2FE002444F0C0042E484068204374
:100F200001902C48019900F0C7FE00200190314942
:100F30000198084301903248019900F0BDFE07E195
:100F4000002444F40044E4432B48406820400190CE
:100F50002948019900F0B0FE1B48406820400190EC
:100F60001948019900F0A8FE2A48416800F0A4FE43
:100F7000002444F0C004E443164840682040019037
:100F80001448019900F098FE40F2FF3500200190CE
:100F900045F480300199084301901F48019900F001
:100FA0008BFE002444F007041C4840682040B8B37E
:100FB000002444F03C04E44306484068204001908B
:100FC00001982EE0000C024010110020201100209A
:100FD000001300208010002080120020001200204A
:100FE000000002408013002088010020B001002092
:100FF000A40100201800010000110020101300209F
:10100000901200201012002090130020B401002044
:10101000A801002020130020A01200202012002090
:101020002BE040F0180001904E48019900F044FE7A
:10103000002220214C4801F0CDFD01200090012626
:1010400008E04FF40041494801F0B8FD06460EB9EA
:101050000020009000980028F3D1454845490860D9
:101060000020019001A94348006800F045FD404977
:1010700001984860404901980860002444F03C040D
:10108000E4433848406820400190019840F0140043
:1010900001903448019900F00FFE002220213248CF
:1010A00001F098FD01200090012608E04FF4004176
:1010B0002E4801F083FD06460EB9002000900098EE
:1010C0000028F3D12D482B4908600020019001A988
:1010D0002848006800F010FD284901984860284918
:1010E00001980860002444F03C04E4431D48406833
:1010F000204001901B48019900F0DEFD002444F4DB
:10110000004420484068204301901E48019900F0A7
:10111000D3FD1D484068204301901B48019900F011
:10112000CBFD002444F0C0040E48406820430190E9
:101130000C48019900F0C0FD00200190134901986E
:10114000084301901248019900F0B6FD00E000BF8D
:1011500000BF01222021044801F03CFD0120BDE830
:10116000FC81000080100020000C024000000240C2
:10117000A013002088010020B801002020130020C7
:10118000AC01002000110020101100201800010007
:10119000A012002010B5172002F048FB00224021C9
:1011A000074801F017FD012001F003FC0122402156
:1011B000034801F00FFD012001F0FBFB10BD000012
:1011C000000C02405A49096821F44031594AC2F8DA
:1011D00004131146D1F8041342681143544A1160B4
:1011E0000168496821F480710268516001684A68A9
:1011F000016942EA0121026851600168496821F0F1
:101200004071026851600168496882681143026850
:1012100051600168896821F4006102689160016889
:101220008968C268114302689160434A816A9142A9
:1012300018D00168896821F07061026891600168C6
:101240008968826A1143026891600168896821F0A7
:1012500040510268916001688968C26A114302685E
:1012600091600BE00168896821F07061026891600B
:101270000168896821F040510268916001688968BD
:1012800021F002010268916001688A68816942EA7E
:10129000410102689160016AD1B10168496841F475
:1012A0000061026851600168496821F46041026888
:1012B000516001684A68416A491E4FF4604393FADD
:1012C000A3F3B3FA83F399400A4301684A6005E047
:1012D0000168496821F40061026851600168C96AC7
:1012E00021F470010268D1620168CA6A818B491ECB
:1012F00042EA01510268D1620168896821F40071F3
:101300000268916001688A68016B42EA41210268C3
:1013100091600168896821F48061026891600168C8
:101320008A68416942EA8121026891607047000041
:1013300004230140002001400100000F002000BFF5
:10134000FE4948600021FD4A11600121916002219F
:10135000D16000BF40F2C1410843F9494860012112
:10136000F74A1160022191600121D1600020F54906
:1013700048600221F34A1160032191600221D1608B
:1013800000BF40F40070F04948600321EE4A11604C
:1013900091600121D1600020EC4948600421EB4AB2
:1013A0001160022191600121D1600220E84948606A
:1013B0000521E74A1160012191600221D1600020DE
:1013C000E44948600621E34A11600321916002214B
:1013D000D16000BFE04948600721DF4A1160032166
:1013E00091600121D16000BFDC4948600821DB4ADF
:1013F0001160012191600221D16000BF48F22201F9
:101400000843D74948600921D54A116002219160FB
:101410000121D160002049F264010843D1494860AC
:101420000A21D04A1160022191600121D16000207F
:101430004AF2A6010843CC4948600B21CA4A116010
:10144000022191600121D1600020C84948600C212F
:10145000C64A1160022191600121D16000BFC449D8
:1014600048600D21C24A1160022191600121D160C2
:1014700000BFC04948600E21BE4A11600221916040
:101480000121D16000BFBC4948600F21BA4A1160F8
:10149000022191600121D16000BFB849486010214C
:1014A000B64A1160022191600121D16000BFB449A8
:1014B00048601121B24A1160022191600121D1607E
:1014C00000BFB04948601221AE4A1160022191600C
:1014D0000121D16000BFAC4948601321AA4A1160C4
:1014E000022191600121D16000BFA8494860142108
:1014F000A64A1160022191600121D16000BFA44978
:1015000048601521A24A1160022191600121D16039
:1015100000BFA049486016219E4A116002219160D7
:101520000121D16000BF9C49486017219A4A11608F
:10153000022191600121D16000BF984948601821C3
:10154000964A1160022191600121D16000BF40F4F0
:10155000B270934948601921914A1160022191604B
:101560000121D160002040F4B2708E4948601A21F8
:101570008C4A1160022191600121D160002040F469
:10158000A070894948601B21874A1160022191603F
:101590000121D1604FF40660844948601C21834AD0
:1015A0001160022191600121D16000BF8049486033
:1015B0001D217F4A1160022191600121D16000BF8D
:1015C0007C4948601E217B4A116002219160012103
:1015D000D16000BF784948601F21774A116002211D
:1015E00091600121D16000BF744948602021734A95
:1015F0001160022191600121D160002070490843EF
:101600007049486021216F4A1160032191600121D6
:10161000D16000206A4908436B49486022216A4A28
:101620001160032191600121D160002064490843C9
:10163000664948602321654A1160032191600121B8
:10164000D1606348634948602421624A11600321E4
:1016500091600121D16000BF5F49486025215E4A49
:101660001160032191600121D16000BF5B49486096
:1016700026215A4A1160032191600121D16000BFE7
:10168000574948602721564A116003219160012182
:10169000D16000BF534948602821524A116003219C
:1016A00091600121D1605049086850494860292162
:1016B0004E4A1160032191600121D1604C490868B4
:1016C0004C4948602A214B4A116003219160012155
:1016D000D16049490868494948602B21474A11604F
:1016E000032191600121D160C805454948602C2142
:1016F000434A1160032191600121D16000BF41493B
:1017000048602D213F4A1160032191600121D16081
:1017100000BF3D4948602E213B4A11600321916082
:101720000121D16000BF394948602F21374A11603B
:10173000032191600121D16000BF69E07010002099
:101740008010002090100020A0100020B010002079
:10175000C0100020D0100020E0100020F010002069
:101760000011002010110020201100203011002055
:101770004011002050110020601100207011002045
:101780008011002090110020A0110020B011002035
:10179000C0110020D0110020E0110020F011002025
:1017A0000012002010120020201200203012002011
:1017B0004012002050120020601200207012002001
:1017C000180001008012002090120020A0120020BA
:1017D00080010600B0120020C0120020D0120020AC
:1017E000E0120020F0120020A401002000130020CD
:1017F000A801002010130020AC01002020130020BD
:1018000030130020401300205013002060130020EC
:10181000364948603021354A116003219160012129
:10182000D16033490868334948603121314A116039
:10183000032191600121D1602F4908682F49486038
:1018400032212E4A1160032191600121D1602C497F
:1018500008682C49486033212A4A116003219160AD
:101860000121D1604FF4A000274948603421264A65
:101870001160032191600121D16000BF23494860BC
:101880003521224A1160032191600121D16000BFFE
:101890001F49486036211E4A1160032191600121D1
:1018A000D16000BF1B49486037211A4A11600321EB
:1018B00091600121D16000BF174948603821164A64
:1018C0001160032191600121D1601449144A116013
:1018D000002151601149134A1160002151601249E1
:1018E000124A1160002151607047000070130020FF
:1018F000B001002080130020B401002090130020CC
:10190000B8010020A0130020B0130020C013002055
:10191000D0130020E0130020F0130020000020323C
:101920008C01002094010020000020349C01002044
:1019300008B500200090404840490860172001F099
:1019400075FFFFF727FC012001F033F800F09EF847
:10195000012001F02EF869463848006800F0CCF804
:10196000012001F026F8009810B10098FF280ED150
:1019700001225102324801F02DF900224FF480611A
:101980002F4801F027F900F067FD002008BD012273
:1019900091022B4801F01EF900224FF400712848F3
:1019A00001F018F92748416800F086F92648416897
:1019B00000F082F92548416800F07EF9244841682A
:1019C00000F07AF92348416800F076F9224841682E
:1019D00000F072F92148416800F06EF92048416832
:1019E00000F06AF91F48416800F066F91E48416836
:1019F00000F062F91D48416800F05EF91C4841683A
:101A000000F05AF91B48416800F056F91A4841683D
:101A100000F052F91948416800F04EF91848416841
:101A200000F04AF91748416800F046F91648416845
:101A300000F042F90120A9E7C01000208801002031
:101A4000000C024000110020001200208012002033
:101A5000001300208013002010110020101200201D
:101A6000901200201013002090130020201100205D
:101A700020120020A012002020130020A01300201C
:101A800080100020A0100020E01000207CB5012470
:101A9000154803F0C7FD0446002514A103C9CDE98C
:101AA000000100222021134801F094F84FF4803304
:101AB000082269460C4803F053FE05460122202106
:101AC0000C4801F087F8284605F0B6FA012801D045
:101AD00000207CBD044803F0A5FD0446012C00D184
:101AE000F7E70020F5E70000D8080020FFFFFFFF20
:101AF000FFFFFFFF000C02402DE9F04F87B00546C5
:101B00000E46172001F092FE2C7AE1000120884059
:101B1000401E059000203060A346584609F0B0FFF3
:101B200004900694069809F0ABFF0746DDF8108094
:101B3000B94600200390287800F03F000290002072
:101B400005E0FF2189F8001009F10109401CA042BD
:101B5000F7D3B94600222021244801F03BF80020A9
:101B60000390029800F03F0040F040009DF80C10F8
:101B7000084303904FF48033012203A91C4803F06B
:101B8000EFFD4FF480302346424649460090184806
:101B900003F0B9FE01222021144801F01BF84FF098
:101BA000000A204609E098F80010421ED200914039
:101BB00041EA0A0A08F10108401E0028F3D1287AF8
:101BC000C10001208840401E059005980AEA0000E7
:101BD000686068683060384608F00EF9049808F0CC
:101BE0000BF9012007B0BDE8F08F0000000C0240A7
:101BF000D80800202DE9F04186B005460E4600BF0A
:101C000000BF00BF00200590049003900290422086
:101C1000059000208DF808008DF809008DF80A0065
:101C2000FF208DF810008DF811008DF812004FF490
:101C30008053012205A91E4803F092FD4FF4805005
:101C4000032302AA04A90090194803F05CFE0020B7
:101C5000059003904FF48050012303AA05A900903A
:101C6000134803F050FE9DF80C0000F00F079DF89C
:101C70000C0000F0400800249DF80A0004439DF881
:101C8000090044EA00249DF8080044EA004407EBF8
:101C9000870000EB4710074A02EB8001204605F061
:101CA000D0F82F7086F80080204606B0BDE8F0819D
:101CB000D8080020180B00202DE9FF4704460E46E7
:101CC0000122D1022D4800F085FF172001F0AEFD62
:101CD0000396002002900DF10C0A0190277A0090E3
:101CE0008046207800F03F09E068022803D10020F8
:101CF00004B0BDE8F08700222021214800F06AFFEF
:101D00000020009009F03F009DF80010084300906B
:101D10004FF48033012269461A4803F021FD3D4605
:101D200012E0681EC100FF20884003990840691E28
:101D3000C900C840C0B201904FF48033012201A90C
:101D4000104803F00DFD6D1E002DEAD10122202167
:101D50000B4800F03FFF207AC10001208840A0F12D
:101D60000108039800EA0800606000224FF4006157
:101D7000024800F02FFF0120BAE7000000080240EF
:101D8000000C0240D808002001F0BEFD00BFFEE7B5
:101D9000002070470020704770B504460D460C487F
:101DA000007808B9012000E000200A4908700A4ABA
:101DB000D2F81812094A074B1B7802EB8310402215
:101DC000FEF71CFA012006490870002070BD0000D3
:101DD0002D0100202E0100204C0E0020880A00203A
:101DE0002C0100200021016041600161704700006A
:101DF0002DE9F04F8FB0F148007800F0010018B9DC
:101E000000200FB0BDE8F08F00200DE00021EC4A6B
:101E100022F81010EB4A1154EB4A42F82010EB4A1A
:101E200042F82010411C88B2FF28EFDB002008E0B8
:101E30000021E74A42F82010E64A42F82010411CEF
:101E400088B20A28F4D30A274FF0000802250020A0
:101E50000D9043F6BB79E8010C900C98A9EB0000BB
:101E600090FBF7F080B20B9048460A90BA460026E5
:101E70004FF0000B484600F0E3F94FF4FA7000F021
:101E800098FD00249DE00B9800FB1490D249088334
:101E9000088B00F0D5F90026B3460020079068E0D3
:101EA000C82000F086FD4FF0000804E00DA9284688
:101EB00004F0EAFF8046B8F1000FF7D0C74A52F8A5
:101EC0002510C54A1069FEF703FA06465946304602
:101ED000FEF7F8F901460690C14807F0AFF90990FE
:101EE000BD48C1680998FEF79FFC3DD80026BA4955
:101EF00008694FF08241FEF71DFA06900020059018
:101F00001CE0012000F055FD4FF0000804E00DA991
:101F1000284604F0B9FF8046B8F1000FF7D0AF486B
:101F200050F825100698FEF7D3F931460490FEF7D5
:101F300077F906460598401C80B205900598082858
:101F4000DFDB01209F4908559F4840F82460A248E4
:101F5000008B9B4921F814009F49088BFEF7B9FBC1
:101F60009C4941F8240007E0B3460798401C80B222
:101F700007900798504593DB00BF9248005D88B9F1
:101F8000944951F824000021FEF74EFC0AD1601E4E
:101F900084B20AF10A001FFA80FABAF5FA7F0EDD60
:101FA00000202EE700BF8A4951F82400FEF7F4FB19
:101FB00000221346CDE90601FEF702FCF3D0601CB7
:101FC00084B2BC42FFF65FAF002008907F4885498D
:101FD00001F108033A46CDE900107B497D4807F03E
:101FE0004BF9089079497F48103000F108033A46D0
:101FF000CDE900017649774807F03EF90899084491
:10200000C0B20890089802287DD17648C1688068DF
:10201000CDE906017348C1698069CDE90401DDE9B4
:102020000623FEF7DEFA6F4AC2E90A01104603C82A
:10203000CDE906011146D1E90401CDE90401DDE94C
:102040000623FEF756FA674AC2E908011046C16A3C
:10205000806A02460B46CDE9020100206249FEF784
:1020600048FACDE904015F4803C8CDE90201DDE982
:102070000423FEF744FACDE906015A48416A006A92
:10208000CDE90401DDE90623FEF792F9554AC2E9DC
:102090000C015148806920F4003000F500304E49B1
:1020A00088610846806920F480308861002488684F
:1020B000FEF772FBCDE902014A4841690069CDE9AA
:1020C0000001DDE90223FEF717FACDE904014548D6
:1020D000C169806902460B46CDE90201DDE90401D0
:1020E000FEF77FFACDE90601FEF73DFB84B23A48E0
:1020F00004830146088BFEF7F1FACDE90201394865
:10210000C169806900E056E0CDE90001DDE9022304
:10211000FEF7F5F9CDE90401324841690069CDE9DE
:102120000201DDE90423FEF743F9CDE90601FEF7DC
:102130005FFB29494861088B00F082F841F2883042
:1021400000F037FC4FF0000804E00DA9284604F029
:102150009BFE8046B8F1000FF7D0204A52F82510B8
:102160001D4A1069FEF7B4F883465846FEF714FB83
:10217000CDE902011B49D1E90A01CDE90001DDE900
:102180000223FEF7BCF9CDE904011648416B006B50
:10219000CDE90201DDE90423FEF70AF9CDE90601E4
:1021A000FEF726FB06460C4948693146FEF78AF8D9
:1021B0000990012025E6002023E600006C010020A4
:1021C000181400201616002018170020141B0020D9
:1021D00008270020101F0020FC0D0020D40C002038
:1021E00070010020302700200000F03F10B50446A9
:1021F0001048007800F00100A8B9012210210E4813
:1022000000F0E8FC0B48006820F00100401C094980
:1022100008600A48006A40F00800084908624FF464
:10222000FA7000F0C6FB204600F00AF8322000F0F9
:10223000C0FB10BD6C010020000C0240280E0020E5
:102240002DE9F04105463548007800F0010010B94D
:102250000020BDE8F0814FF0000800260024002295
:1022600004212F4800F0B6FC002240212C4800F049
:10227000B1FC012202212A4800F0ACFC0022082116
:10228000274800F0A7FC01221021254800F0A2FCFD
:1022900009F07CFF2C46A40122480440002725E0D9
:1022A000012204211E4800F095FC09F06FFFC7F1E0
:1022B0001701012000FA01F8264606EA08062EB9A1
:1022C00000224021164800F085FC04E00122402154
:1022D000134800F07FFC09F059FF00220421104848
:1022E00000F078FC09F052FF781CC7B2182FD7DB3A
:1022F000012202210A4800F06DFC01220821084851
:1023000000F068FC01221021054800F063FC002267
:102310004021034800F05EFC01209AE76C01002098
:1023200000100240C0FF3F00C16821F00101C16000
:102330000021018100224FF4A041C0E90021FF21CA
:1023400041810021C1817047F8B5044616480078E4
:1023500000F0010008B90020F8BD0025002600208B
:102360000090012740F20C4600BF8DF800003A466D
:102370006946304609F046FC761E00BF00208DF805
:1023800001003A460DF10101304609F03BFC9DF891
:1023900001009DF8001040EA0120208020880349B8
:1023A00048810120D8E700006C010020180E0020B1
:1023B0002DE9F84305461948007800F0010010B9EE
:1023C0000020BDE8F88300260027002000904FF091
:1023D0000108C5F30904200A8DF80000E0B28DF869
:1023E000010040F20C4700BF42466946384609F0FA
:1023F00059FF7F1E00BF42460DF10101384609F02A
:1024000051FF052700BF01208DF8000042466946B4
:10241000384609F047FF0120D3E700006C01002097
:10242000016821F004010160016821F002010160EE
:10243000016821F0010101607047704710B5172055
:1024400001F0F4F9172001F0E3F980200149086058
:1024500010BD0000143C0140002004F0CDFC002021
:1024600004F0DCFC002004F079FC00224FF48071C1
:102470000E4800F0AFFB00224FF480610B4800F0E3
:10248000A9FB12E001225102084800F0A3FB4FF41F
:10249000967000F08EFA00224FF40071034800F0AD
:1024A00099FB4FF4967000F084FAEBE7000C0240C1
:1024B0000246D1E90003984201D10020704701F1A2
:1024C00014004B6850F8230010604868401C4860B6
:1024D000CB68984201D3002048600120EEE700005D
:1024E00018B502460020009000BF92F83C00012879
:1024F00001D1022018BD012082F83C0000BF08680D
:10250000092816D91068C0680B780A3B03EB43040E
:102510000723A34098431368D8600B780A3B03EB6A
:102520004303886898401368DB6818431368D860D1
:1025300013E0106800690B7803EB43040723A34002
:102540009843136818610B7803EB4303886898403D
:1025500013681B691843136818614868072817D265
:102560001068406B0B795B1E03EB83041F23A340B1
:10257000984313685863088880B20B795B1E03EB9D
:102580008303984013685B6B18431368586331E00A
:1025900048680D2817D21068006B0B79DB1F03EB1E
:1025A00083041F23A340984313681863088880B2EC
:1025B0000B79DB1F03EB8303984013681B6B1843F5
:1025C0001368186316E01068C06A0B790D3B03EBC3
:1025D00083041F23A34098431368D862088880B2FD
:1025E0000B790D3B03EB830398401368DB6A1843B8
:1025F0001368D8621C4B1068984208D108681228EA
:1026000005D11A48006840F48000C3F80403164B53
:102610001068984220D1164B0868984202D008688A
:10262000112819D11148006840F400000F4B1860C0
:102630000F4B086898420FD10E4800680E4BB0FB54
:10264000F3F000EB80004000009002E00098401E94
:10265000009000980028F9D100BF002082F83C00CB
:1026600000BF00BF46E700000020014004230140F6
:10267000120000108000002040420F000146086850
:10268000C06C704770B5044600250CB9012070BDC0
:102690001549A06A884200D000BF206C30B90020E4
:1026A000606484F83C00204600F020F8206C00F0C4
:1026B000100088B9206C20F4885040F0020020649B
:1026C0002046FEF77FFD00206064206C20F00200B1
:1026D00040F00100206400E0012500BF002084F8E4
:1026E0003C0000BF2846D2E70100000F10B586B0BD
:1026F000044610492068884219D100BF002000908C
:102700000D48006840F480700B4908600846006876
:1027100000F48070009000BF00BF0F2001900320E4
:1027200002900020039001A9044800F04FF906B080
:1027300010BD00000020014044380240000002406B
:1027400070B504460D4600262068806800F480605D
:1027500078B12068806800F4807050B1206C40F03F
:102760002000206400BF002084F83C0000BF01204E
:1027700070BD00F035FA064612E0681C80B125B144
:1027800000F02EFA801BA8420AD9206C40F0040009
:10279000206400BF002084F83C0000BF0320E7E76E
:1027A0002068006800F002000228E6D16FF01200F5
:1027B00021680860206C40F4007020642068806804
:1027C00000F04050B8B9A069A8B92068C06A00F408
:1027D000700020B12068806800F4806058B9206CD7
:1027E00020F480702064206C00F4805018B9206CB4
:1027F00040F0010020640020BAE7000008B501465F
:102800000020009000BF91F83C00012801D1022077
:1028100008BD012081F83C0000BF0868806800F016
:102820000100A0B90868806840F001000A68906063
:102830002E4800682E4AB0FBF2F000EB40000090FA
:1028400002E00098401E009000980028F9D1086826
:10285000806800F00100002845D0086C40F2016259
:10286000904340F4807008640868406800F4806019
:1028700028B1086C20F4005040F480500864086CC3
:1028800000F4805020B1486C20F00600486401E05C
:102890000020486400BF002081F83C0000BF6FF0BA
:1028A00022000A6810601348006800F01F0058B941
:1028B0000868806800F04050A8B90868806840F057
:1028C00080400A6890600EE00B4A086890420AD186
:1028D0000868806800F0405028B90868806840F0B7
:1028E00080400A689060002092E70000800000208D
:1028F00040420F000423014000200140014600BF78
:1029000091F83C00012801D102207047012081F894
:102910003C0000BF0868806820F001000A689060F1
:102920000868806800F0010028B9086C20F488501D
:1029300040F00100086400BF002081F83C0000BFA7
:1029400000BFE2E730B503460C46002100BF18790E
:10295000012801D1022030BD0120187100BF0220E2
:102960005871002104E054F821001D682860491CBA
:102970009142F8D30120587100BF0020187100BFA8
:1029800018680068E7E701464879704710B50446C3
:102990000CB9012010BD607920B9002020712046BB
:1029A00000F006F802206071012060710020F1E75C
:1029B000704731B5002400F013F9044600BF00F061
:1029C0000FF9001B00998842F9D338BDF8B50246CB
:1029D0000B460025002400200021D7E0012606FA3E
:1029E00001F51E6806EA0504AC4273D15E68022E4A
:1029F00002D05E68122E13D1CF0802F1200656F8DD
:102A000027004E07F70E0F26BE40B0434F07FF0EBC
:102A10001E69BE403043CF0802F1200646F8270069
:102A200010684F000326BE40B0431E7906F003062F
:102A30004F00BE40304310605E68012E08D05E68D3
:102A4000022E05D05E68112E02D05E68122E13D1C0
:102A500090684F000326BE40B0434F00DE68BE4082
:102A600030439060506801268E40B0431E79C6F313
:102A700000168E4030435060D0684F000326BE40A1
:102A8000B0434F009E68BE403043D0605E6806F0A1
:102A90008056B6F1805F78D100BF002600963D4E8B
:102AA000366846F480463B4F3E603E46366806F444
:102AB0008046009600BF00BF374E8F0856F82700AB
:102AC0008E07370F0F26BE40B043344EB24202D1BC
:102AD00000261FE059E0324EB24201D1012619E032
:102AE000304EB24201D1022614E02F4EB24201D143
:102AF00003260FE02D4EB24201D104260AE02C4EEF
:102B0000B24201D1052605E02A4EB24201D1062685
:102B100000E007268F073F0FBE4030431E4E8F0850
:102B200046F82700244E3068A0435E6806F48036DD
:102B3000B6F5803F00D120431F4E3060361D30680F
:102B4000A0435E6806F40036B6F5003F00D120438E
:102B5000194E361D3060361D3068A0435E6806F49D
:102B60008016B6F5801F00D12043134E0836306022
:102B7000361D3068A0435E6806F40016B6F5001FE7
:102B800000D120430C4E0C363060491C1029FFF454
:102B900025AFF8BD4438024008380140000002402B
:102BA0000004024000080240000C024000100240F5
:102BB0000014024000180240003C01400246136924
:102BC0000B400BB1012000E00020704742694A40F1
:102BD000426170470AB1816101E00B048361704773
:102BE00001480068704700008400002070B504466A
:102BF000002600250CB9012070BD94F83D0028B9CD
:102C0000002084F83C00204600F038FD242084F8A1
:102C10003D002068006820F001002168086002F093
:102C200007FA05463948B5FBF0F620684660384992
:102C30006068884201D8701C07E04FF496707043BA
:102C40004FF47A71B0FBF1F0401C21680862304902
:102C5000606888420ED860684000B5FBF0F0C0F3B1
:102C60000B00042801D204202DE060684000B5FB71
:102C7000F0F028E0A06828B9606800EB4000B5FBE0
:102C8000F0F008E0606800EBC00101EB0010B5FB5C
:102C9000F0F040F48040C0F30B0008B9012012E0CE
:102CA000A06828B9606800EB4000B5FBF0F008E0D0
:102CB000606800EBC00101EB0010B5FBF0F040F4E0
:102CC000804040F400402168C861D4E9070108430E
:102CD00021680860D4E90310084321688860D4E9BA
:102CE000050108432168C8602068006840F00100C1
:102CF0002168086000202064202084F83D00002026
:102D0000206384F83E0000BF76E7000040420F00D9
:102D1000A08601002DE9F8430446894617469846E7
:102D2000089E0025FFF75CFF054694F83D0020282B
:102D30007CD119230122BE492046009503F0B7FB40
:102D400010B10220BDE8F88300BF94F83C000128D0
:102D500001D10220F6E7012084F83C0000BF206882
:102D6000006800F0010028B92068006840F0010008
:102D7000216808602068006820F40060216808600D
:102D8000222084F83D00102084F83E0000202064BA
:102D90006762A4F82A80A748E062608D20852B46F0
:102DA00032464946204603F043F980B1206C04289E
:102DB00006D100BF002084F83C0000BF0120C1E71D
:102DC00000BF002084F83C0000BF0320BAE7208D3C
:102DD00088B900BF002000902068406900902068FA
:102DE0008069009000BF00BF2068006840F4007058
:102DF0002168086046E0208D012818D1206800680D
:102E000020F480602168086000BF002000902068E6
:102E10004069009020688069009000BF00BF206872
:102E2000006840F40070216808602BE0FEE0208D0F
:102E3000022816D12068006820F4806021680860AC
:102E40002068006840F400602168086000BF00202E
:102E5000009020684069009020688069009000BF61
:102E600010E02068006840F480602168086000BFBE
:102E700000200090206840690090206880690090E0
:102E800000BF00BFC3E0208D032872D8208D012829
:102E90001AD12A463146204603F09DFB30B1206C02
:102EA000202801D103204DE701204BE7206800696D
:102EB000C1B2626A501C60621170208D401E208574
:102EC000608D401E6085A2E0208D02282AD1334605
:102ED000002259492046009503F0E9FA08B1032081
:102EE00030E72068006840F40070216808602068BE
:102EF0000069C1B2626A501C60621170208D401E70
:102F00002085608D401E608520680069C1B2626ABC
:102F1000501C60621170208D401E2085608D401E07
:102F2000608574E03346002243492046009503F053
:102F3000BEFA08B1032005E72068006820F480602D
:102F40002168086020680069C1B2626A501C606232
:102F50001170208D401E2085608D401E6085334697
:102F6000002235492046009503F0A1FA10B1032054
:102F7000E8E620E02068006840F4007021680860FE
:102F800020680069C1B2626A501C60621170208DB5
:102F9000401E2085608D401E608520680069C1B29A
:102FA000626A501C60621170208D401E2085608D09
:102FB000401E60852BE02A463146204603F00BFB7D
:102FC00030B1206C202801D10320BBE60120B9E6F6
:102FD00020680069C1B2626A501C60621170208D65
:102FE000401E2085608D401E608520684069C0F3CA
:102FF000800060B120680069C1B2626A501C6062E2
:103000001170208D401E2085608D401E6085208DB2
:1030100000287FF438AF202084F83D00002084F899
:103020003E0000BF84F83C0000BF8BE6022089E62A
:10303000020010000000FFFF040001002DE9F8432A
:103040000446894617461D46DDF820800026FFF716
:10305000C7FD064694F83D0020287DD119230122A2
:1030600059492046009603F022FA10B10220BDE82B
:10307000F88300BF94F83C00012801D10220F6E754
:10308000012084F83C0000BF2068006800F00100C7
:1030900028B92068006840F00100216808602068B5
:1030A000006820F4006021680860212084F83D0059
:1030B000102084F83E000020206467626585434844
:1030C000E062608D2085334642464946204603F043
:1030D00047F880B1206C042806D100BF002084F896
:1030E0003C0000BF0120C2E700BF002084F83C0084
:1030F00000BF0320BBE700BF0020009020684069AC
:10310000009020688069009000BF00BF45E0324613
:103110004146204603F096FA60B1206C042807D19E
:103120002068006840F400702168086001209EE774
:1031300003209CE7616A481C606208782168086186
:10314000608D401E6085208D401E2085206840696E
:10315000C0F3800070B100E033E05DB1616A481CEB
:103160006062087821680861608D401E6085208D4E
:10317000401E208532464146204603F06DF960B17D
:10318000206C042807D12068006840F40070216892
:10319000086001206BE7032069E7208D0028B6D185
:1031A0002068006840F4007021680860202084F8DE
:1031B0003D00002084F83E0000BF84F83C0000BFC2
:1031C00055E7022053E70000020010000000FFFF57
:1031D0002DE9FC5F0446884691469A46DDE90CB726
:1031E0000E9E0025FFF7FCFC054694F83D002028C4
:1031F0007ED119230122BC492046009503F057F9DE
:1032000010B10220BDE8FC9F00BF94F83C000128EB
:1032100001D10220F6E7012084F83C0000BF2068BD
:10322000006800F0010028B92068006840F0010043
:10323000216808602068006820F400602168086048
:10324000222084F83D00402084F83E0000202064C5
:10325000C4F824B06785A548E062608D2085534698
:103260004A4641462046CDE9006502F0D9FF80B1CB
:10327000206C042806D100BF002084F83C0000BF69
:103280000120BFE700BF002084F83C0000BF0320FE
:10329000B8E7208D88B900BF002001902068406900
:1032A000019020688069019000BF00BF206800681D
:1032B00040F400702168086040E0208D012818D19A
:1032C0002068006820F480602168086000BF00204A
:1032D000019020684069019020688069019000BFDA
:1032E00000BF2068006840F400702168086025E095
:1032F000F7E0208D022816D12068006820F4806055
:10330000216808602068006840F400602168086057
:1033100000BF00200190206840690190206880690A
:10332000019000BF0AE000BF0020019020684069C2
:10333000019020688069019000BF00BFC2E0208D2D
:10334000032871D8208D01281AD12A4631462046FB
:1033500003F041F930B1206C202801D1032051E75E
:1033600001204FE720680069C1B2626A501C6062A8
:103370001170208D401E2085608D401E6085A1E06B
:10338000022F2AD13346002259492046009503F0E6
:103390008EF808B1032035E72068006840F400701B
:1033A0002168086020680069C1B2626A501C6062CE
:1033B0001170208D401E2085608D401E6085206824
:1033C0000069C1B2626A501C60621170208D401E9B
:1033D0002085608D401E608574E03346002244499C
:1033E0002046009503F063F808B103200AE720683F
:1033F000006820F480602168086020680069C1B21C
:10340000626A501C60621170208D401E2085608DA4
:10341000401E60853346002235492046009503F062
:1034200046F810B10320EDE620E02068006840F483
:1034300000702168086020680069C1B2626A501C8F
:1034400060621170208D401E2085608D401E608559
:1034500020680069C1B2626A501C60621170208DE0
:10346000401E2085608D401E60852BE02A46314637
:10347000204603F0B0F830B1206C202801D10320A1
:10348000C0E60120BEE620680069C1B2626A501C35
:1034900060621170208D401E2085608D401E608509
:1034A00020684069C0F3800060B120680069C1B243
:1034B000626A501C60621170208D401E2085608DF4
:1034C000401E6085208D00287FF439AF202084F8CD
:1034D0003D00002084F83E0000BF84F83C0000BF9F
:1034E00090E602208EE60000020010000000FFFFC0
:1034F000040001002DE9FC5F04460F469046994602
:10350000DDE90CAB0E9E0025FFF76AFB054694F83B
:103510003D0020287ED119230122564920460095DE
:1035200002F0C5FF10B10220BDE8FC9F00BF94F877
:103530003C00012801D10220F6E7012084F83C007C
:1035400000BF2068006800F0010028B9206800680A
:1035500040F00100216808602068006820F40060E5
:1035600021680860212084F83D00402084F83E0056
:1035700000202064C4F824A0A4F82AB03E48E062E9
:10358000608D20854B46424639462046CDE9006590
:1035900002F0F2FE80B1206C042806D100BF0020AA
:1035A00084F83C0000BF0120BEE700BF002084F883
:1035B0003C0000BF0320B7E733E02A4631462046EF
:1035C00003F040F860B1206C042807D1206800683F
:1035D00040F40070216808600120A5E70320A3E7FC
:1035E000616A481C6062087821680861208D401E6D
:1035F0002085608D401E608520684069C0F3800092
:1036000078B1208D68B1616A481C606208782168D1
:10361000086100E02CE0208D401E2085608D401E5A
:103620006085208D0028C8D12A463146204602F008
:1036300013FF60B1206C042807D12068006840F4B3
:1036400000702168086001206EE703206CE72068A5
:10365000006840F4007021680860202084F83D0074
:10366000002084F83E0000BF84F83C0000BF5BE708
:10367000022059E7020010000000FFFF10B586B0DD
:1036800004462A49206888421DD1C020019012209A
:10369000029001200390032004900420059001A9CA
:1036A0002348FFF793F900BF0020009021480068ED
:1036B00040F400101F4908600846006800F400103C
:1036C000009000BF30E01C49206888422CD1401592
:1036D0000190122002900120039003200490042006
:1036E000059001A91548FFF771F94FF4807001901A
:1036F00012200290012003900320049004200590E2
:1037000001A90F48FFF762F900BF002000900948A7
:10371000006840F40000074908600846006800F4AB
:103720000000009000BF00BF06B010BD0054004074
:103730000004024040380240005C004000080240A3
:103740000000024002480068401C014908607047C0
:103750008400002010B50D48006840F400700B494B
:1037600008600846006840F4806008600846006809
:1037700040F480700860032000F0B2F8002000F0F0
:1037800007F800F019F8002010BD0000003C0240CE
:1037900070B50446074800684FF47A71B0FBF1F544
:1037A000284602F0D4F900222146501E00F059F8B4
:1037B000002070BD8000002010B5032000F090F8BC
:1037C000002211466FF00B0000F04BF8002211466A
:1037D0006FF00A0000F045F8002211466FF0090072
:1037E00000F03FF800221146501F00F03AF8002286
:1037F0001146101F00F035F800221146901E00F00F
:1038000030F800221146501E00F02BF810BD0000C9
:1038100000BF00F01F0201219140034A430942F812
:10382000231000BF7047000080E200E000BF00F0FE
:103830001F0201219140034A430942F8231000BFAF
:103840007047000080E100E000BF00F01F0201218E
:1038500091404209920002F1E022C2F8001100BF3B
:1038600070472DE9F05F80460D461646002703F0AD
:103870006FF9074639462A46334601F00700C0F182
:10388000070ABAF1040F02D94FF0040A01E0C0F1AF
:10389000070AD14600F1040ABAF1070F02D24FF02D
:1038A000000A01E0A0F1030AD4464FF0010A0AFA27
:1038B00009FAAAF1010A0AEA020A0AFA0CFA4FF016
:1038C000010B0BFA0CFBABF1010B0BEA030B4AEA01
:1038D0000B042146404603F043F9BDE8F09F000089
:1038E00000BF00F00702064B19684FF6FF031940AE
:1038F000044B0B4343EA0221014B196000BF7047A0
:103900000CED00E00000FA0500BF00BF00BF00BFE3
:1039100000BFBFF34F8F00BF00BF00BF0948006862
:1039200000F4E06008490843001D0649086000BF34
:1039300000BF00BFBFF34F8F00BF00BF00BF00BF7D
:1039400000BFFDE70CED00E00000FA0501460A6843
:103950000120C1F8F403002081F8EC03906940F0E5
:1039600000609061506D024B184350650020704715
:103970000300001070B504460D4615B1012D2CD181
:1039800016E0206A38B103F081FB1548006820F08A
:103990000600134908602068D0F8000E20F00100EE
:1039A0002168C1F8000ED4F8F80304F0E1FA14E03D
:1039B0002068D0F8000E40F001002168C1F8000E28
:1039C000D4F8F80304F089FB206A28B104480068A1
:1039D00040F006000249086000BF00BF70BD000053
:1039E00010ED00E002461068416200207047F0B51B
:1039F00003461446002500221868426A21B942EAAB
:103A000004401E68B06219E01868806A02EB104238
:103A1000002508E0186800F5827050F8250002EBD8
:103A20001042681CC5B2481EA842F3D842EA0447B7
:103A3000186800F582704E1E40F826700020F0BD18
:103A400010B50446D4F8F80304F0A4F910BD70B51D
:103A500004460D46C5EBC50304F1380101EB8301B3
:103A6000CA682946D4F8F80304F0E4F870BD70B5CC
:103A700004460D46C5EBC50304F5FC7101EB83015B
:103A8000CA682946D4F8F80304F041F970BD10B5AE
:103A90000446D4F8F80304F080F910BD70B504466C
:103AA0000D4605F08000802808D105F07F00C0EBAE
:103AB000C00104F1380000EB810607E005F07F004B
:103AC000C0EBC00104F5FC7000EB810605F07F003F
:103AD000307005F08000C009707000BF94F8B80322
:103AE000012801D1022070BD012084F8B80300BF75
:103AF0003146206804F0F6FD00BF002084F8B803CA
:103B000000BF00BFEFE770B504460D4605F080002A
:103B1000802808D105F07F00C0EBC00104F1380017
:103B200000EB810605E0C5EBC50104F5FC7000EB78
:103B300081060020B07005F07F003070C5F3C01022
:103B4000707000BF94F8B803012801D1022070BD45
:103B5000012084F8B80300BF3146206805F00CF856
:103B600000BF002084F8B80300BF00BFEFE72DE9D5
:103B7000F04705460E4690461F464FF0000906F0F6
:103B80008000802808D106F07F00C0EBC00105F15D
:103B9000380000EB810407E006F07F00C0EBC001B5
:103BA00005F5FC7000EB810406F07F00207006F044
:103BB0008000C0096070C4F80880E770607808B1C0
:103BC0002078E080022F01D10020207100BF95F8FD
:103BD000B803012802D10220BDE8F087012085F852
:103BE000B80300BF2146286804F09EFC00BF0020F7
:103BF00085F8B80300BF4846EEE72DE9F0410446DA
:103C00000E461746984606F07F00C0EBC00104F54B
:103C1000FC7000EB8105EF60C5F814800020A861FE
:103C2000687006F07F0028702069012800D12F619C
:103C300000BF94F8B803012802D10220BDE8F0814A
:103C4000012084F8B80300BF06F07F0028B9227C69
:103C50002946206804F096FE04E0227C294620686C
:103C600005F014F800BF002084F8B80300BF00BFBF
:103C7000E4E770B504460D4605F08000802808D1C1
:103C800005F07F00C0EBC00104F1380000EB8106B5
:103C900005E0C5EBC50104F5FC7000EB81060120D1
:103CA000B07005F07F003070C5F3C010707000BFB9
:103CB00094F8B803012801D1022070BD012084F8D6
:103CC000B80300BF3146206804F09AFF05F07F007A
:103CD00028B9217C04F56F72206804F02BFF00BF27
:103CE000002084F8B80300BF00BFE6E72DE9F041EB
:103CF00004460E461746984606F07F00C0EBC0010A
:103D000004F1380000EB8105EF60C5F81480002055
:103D1000A8610120687006F07F00287020690128E2
:103D200000D12F6100BF94F8B803012802D102200E
:103D3000BDE8F081012084F8B80300BF06F07F00E1
:103D400028B9227C2946206804F01CFE04E0227C6D
:103D50002946206804F09AFF00BF002084F8B803C9
:103D600000BF00BFE4E700002DE9FC5F04462668C1
:103D70004FF0000B00200190804600250090814606
:103D8000FE4F206805F042F900286CD1206805F04C
:103D900075F908B9BDE8FC9F206805F06FF900F0DF
:103DA0000200022805D12068406900F00200216865
:103DB0004861206805F062F900F40020B0F5002F9A
:103DC0007DD10025206805F02FF9019082E001984F
:103DD00000F00100002879D0E9B2206805F043F92D
:103DE000804608F00100E8B3012106F5306000EBE1
:103DF00045108160206901282BD1C5EBC50104F570
:103E0000FC7000EB8100816806F5306000EB451026
:103E10000069C0F31200091AC5EBC50204F5FC7075
:103E200000EB82008161C5EBC50104F5FC7000EB7D
:103E30008100C5EBC502C16804F5FC7000EB82008F
:103E400080680144C5EBC50204F5FC7000EB8200FC
:103E5000C160E9B22046FFF70AFE2069012811D1AE
:103E600005B901E00EE0EAE2C5EBC50104F5FC701E
:103E700000EB8100406928B904F56F7201212068C8
:103E800004F058FE08F00800082808D1204600F089
:103E90002FFC082106F5306000EB4510816008F02A
:103EA0001000102805D1102106F5306000EB4510F8
:103EB000816008F02000202808D1202101E00DE0D9
:103EC00004E006F5306000EB451081606D1C019840
:103ED00040080190019800287FF479AF206805F030
:103EE000CDF800F48020B0F5802F7DD1206805F05A
:103EF00092F80190002585E0019800F0010000286B
:103F00007CD0E9B2206805F098F8804608F00100FE
:103F1000F0B30120A840009040F634008059009989
:103F2000884340F634018851012106F5106000EB0A
:103F3000451081602069012815D1C5EBC50104F148
:103F4000380000EB8100C5EBC502C16804F1380000
:103F500000EB820080680144C5EBC50204F1380023
:103F600000EB8200C160E9B22046FFF770FD2069D6
:103F7000012810D165B9C5EBC50104F1380000EB8B
:103F80008100406920B904F56F720121206800E0CA
:103F900001E004F0CFFD08F00800082805D1082151
:103FA00006F5106000EB4510816008F01000102845
:103FB00005D1102106F5106000EB4510816008F076
:103FC0004000402805D1402106F5106000EB451067
:103FD000816008F00200022805D1022106F5106078
:103FE00000EB4510816001E010E007E008F0800080
:103FF000802803D12946204602F0CEFD6D1C019891
:1040000040080190019800287FF476AF206805F001
:1040100035F800F00040B0F1004F1CD140F604002C
:10402000805920F0010140F60400815194F8EC031E
:10403000012807D1002084F8EC0300212046FFF777
:1040400099FC02E0204600F02CFB2068406900F05B
:10405000004021684861206805F010F800F4006015
:10406000B0F5006F0ED140F60800805900F0010055
:1040700010B1204600F060FB2068406900F4006049
:1040800021684861206804F0F9FF00F00060B0F199
:10409000006F19D12068406900F000602168486114
:1040A00094F8EC0368B9012084F8EC032068406DB3
:1040B000C0F38300C4F8F00301212046FFF75AFC47
:1040C00002E0204600F038FB206804F0D7FF00F43F
:1040D0008050B0F5805F5FD140F60400805920F039
:1040E000010140F6040081510021206804F054FFD2
:1040F0004FF0000B0CE0FF2106F5106000EB4B10B9
:10410000816006F5306000EB4B1081600BF1010B14
:1041100060685845EFD84FF0FF3140F618008151E4
:10412000001D805940F0011140F61C008151206BA8
:1041300070B1D6F8840840F00B01C6F8841840F638
:104140004400805940F00B0140F6440081510EE0DC
:1041500040F61400805940F02B0140F614008151C4
:10416000001F805940F00B014FF401608151D6F8D7
:10417000000820F4FE60C6F8000801E00095BA0AC5
:10418000217C04F56F72206804F0D4FC206840693B
:1041900000F4805021684861206804F06FFF00F44B
:1041A0000050B0F5005F77D1206804F01FFA206856
:1041B000C06820F470502168C860206804F004FFD3
:1041C00058B90021E1604FF4007161612068C06856
:1041D00040F410502168C8607FE00321E160402175
:1041E00061619848874209D39748874206D2206880
:1041F000C06840F470502168C8606EE09248874201
:1042000009D39248874206D22068C06840F46050C3
:104210002168C86061E08D48874209D38C48874295
:1042200006D22068C06840F450502168C86054E04D
:104230008748874209D38748874206D22068C068EA
:1042400040F440502168C86047E08248874209D363
:104250008148874206D22068C06840F43050216807
:10426000C8603AE07C48874209D37C48874206D23E
:104270002068C06840F420502168C8602DE077486D
:1042800087420AD37648874207D22068C06840F444
:1042900010502168C86020E028E07148874209D3A7
:1042A0007048874206D22068C06840F400502168F8
:1042B000C86012E06B48874209D36B48874206D238
:1042C0002068C06840F4E0502168C86005E02068BC
:1042D000C06840F4C0502168C860204600F0C8F9AA
:1042E0002068406900F4005021684861206804F0AB
:1042F000C5FE00F01000102845D12068806920F02C
:10430000100021688861D6F8209009F00F00C0EBFA
:10431000C00104F5FC7000EB810AC9F34340022898
:104320001AD147F6F07009EA000030B3C9F30A1257
:104330003046DAF80C1004F0A7FEC9F30A11DAF8D7
:104340000C000844CAF80C00C9F30A11DAF8180086
:104350000844CAF8180010E0C9F3434006280CD1FD
:10436000082204F56F71304604F08EFEC9F30A117D
:10437000DAF818000844CAF818002068806940F08C
:10438000100021688861206804F078FE00F00800C1
:10439000082808D1204600F08BF92068406900F019
:1043A000080021684861206804F068FE00F480106D
:1043B000B0F5801F09D1E9B2204600F057F8206817
:1043C000406900F4801021684861206804F056FEBE
:1043D00000F40010B0F5001F09D1E9B2204600F04A
:1043E0004EF82068406900F4001021684861206898
:1043F00004F044FE00F08040B0F1804F08D1204628
:10440000FFF71EFB2068406900F08040216848618A
:10441000206804F033FE00F0040004280FD1206867
:10442000D0F8049009F00400042802D12046FFF7D8
:104430002EFB2068406840EA09002168486000BF00
:10444000A8E40000C0ACD800C0E1E4000024F400FF
:1044500080730601A0491A01002D310140A44C01CE
:1044600000366E0120ABA6010048E80170B5044695
:104470000D462946D4F8F80303F0F0FC70BD70B582
:1044800004460D462946D4F8F80303F0EAFC70BD53
:1044900030B58BB00446002514B901200BB030BDF7
:1044A000032084F8B903204600F09AF8206804F04D
:1044B00061FA282204F110016846FBF79FFE94E898
:1044C0000F0004F0B5F80021206804F0EEFD00258F
:1044D00030E00121C5EBC50204F1380000EB820099
:1044E0004170C5EBC50204F1380000F82250C5EB5D
:1044F000C50200EB8200C5800021C5EBC50204F1B6
:10450000380000EB8200C170C5EBC50204F1380031
:1045100000EB82008160C5EBC50204F1380000EBBE
:104520008200C160C5EBC50204F1380000EB8200D7
:1045300041616D1C0F2DCCD3002536E00021C5EB69
:10454000C50204F5FC7000EB82004170C5EBC502AA
:1045500004F5FC7000F82250C5EBC50204F13800E8
:1045600000EB8200C580C5EBC50204F5FC7000EBD2
:104570008200C170C5EBC50204F5FC7000EB82003F
:104580008160C5EBC50204F5FC7000EB8200C160E0
:10459000C5EBC50204F5FC7000EB820041612068A8
:1045A00000F5827040F825106D1C0F2DC6D328220F
:1045B00004F110016846FBF721FE94E80F0004F0B7
:1045C00003F9012084F8B903606A012802D120466A
:1045D000FFF7BCF9206804F0E8F800205EE700006F
:1045E00010B586B004462068B0F1A04F3AD14FF420
:1045F0000070019000200290039001A91A48FEF774
:10460000E5F94FF4C0500190022002900020039081
:10461000032004900A20059001A91348FEF7D6F95B
:1046200000BF1248006840F080001049086000BFD9
:10463000002000900D481030006840F480400B4985
:10464000103108600846006800F48040009000BF08
:1046500000BF00BF002211464320FFF702F94320AC
:10466000FFF7F2F806B010BD0000024034380240F7
:1046700070B504460125E06810B1022804D101E0BC
:10468000002503E0012501E0012500BF00BF294608
:10469000D4F8F80303F084FCD4F8F80303F046FCE4
:1046A00070BD10B50446D4F8F80303F061FC10BDEA
:1046B00010B50446D4F8F80303F061FC10BD70B5E2
:1046C00004460D4600BF94F8B803012801D102202A
:1046D00070BD012084F8B80300BF2946206804F0AB
:1046E000FCFC00BF002084F8B80300BF00BFEFE768
:1046F00010B5044604F56F71D4F8F80303F076FCA6
:1047000010BD10B5044600BF94F8B803012801D1CC
:10471000022010BD012084F8B80300BF206804F017
:1047200035F8206804F01AFC00BF002084F8B803B4
:1047300000BF00BFEDE7000010B50446D4F8F80351
:1047400003F0CBFC2068D0F8000E40F00100216897
:10475000C1F8000E206A28B10348006840F0060046
:104760000149086010BD000010ED00E02DE9FE4F8A
:104770000446002500260027A846A946AA46AB46BF
:10478000002002900190207800F0010058B1FE480E
:10479000006820F0C060A16B0843FB490860A06B73
:1047A00008B901200290207800F0020002280BD105
:1047B000F548006820F0C050E16B0843F2490860FA
:1047C000E06B08B901200290207800F00400042872
:1047D00011D1ED48006820F44010216B0843EA49EC
:1047E0000860206BB0F5801F01D101200290206B82
:1047F00008B901200190207800F00800082811D1A4
:10480000E148006820F44000616B0843DE4908601D
:10481000606BB0F5800F01D101200290606B08B988
:1048200001200190207800F0200020286FD100BFE7
:1048300000200090D4484C38006840F08050D249A5
:104840004C3908600846006800F08050009000BFB6
:1048500000BFCE48006840F48070CC490860FEF785
:10486000BFF9054607E0FEF7BBF9401B022802D955
:104870000320BDE8FE8FC548006800F48070002862
:10488000F1D0C1481C38006800F4407656B3B4F843
:10489000400000F44070B04224D0BB481C3800688F
:1048A00020F440760120BA49086000200860B6482C
:1048B0001C380660006800F0010098B1FEF790F91E
:1048C000054608E0FEF78CF9401B41F2883188422A
:1048D00001D90320CDE7AC481C380068C0F3400084
:1048E0000028EFD000BFB4F8400000F44070B0F5ED
:1048F000407F0DD1A4488438006820F4F810A54A00
:10490000216C11400843A0498439086008E013E095
:104910009D488438006820F4F8109B498439086069
:1049200099481C380068B4F84010C1F30B010843E3
:1049300095491C39086000BF207800F0100010284D
:1049400003D194F8580094490860207800F0800062
:10495000802809D18C480830006820F44000E16CC0
:104960000843894908310860207800F04000402859
:1049700009D185480830006820F08060A16C0843A8
:10498000814908310860208800F48070B0F5807F8C
:104990000FD17D480830006820F00060616D084349
:1049A000794908310860606DB0F1006F01D10120D4
:1049B0000190208800F40070B0F5007F09D17248A2
:1049C0000830006820F08050616C08436E4908315F
:1049D0000860208800F48060B0F5806F0FD16A48CD
:1049E0000830006820F00050216D08436649083106
:1049F0000860206DB0F1005F01D1012002900298A3
:104A0000012803D02068B0F5006F7DD100206349F4
:104A10008866FEF7E5F8054606E0FEF7E1F8401B7C
:104A2000022801D9032024E757488C380068C0F3D6
:104A3000C0600028F1D1207800F0010008B1A06B1F
:104A400030B1207800F00200022848D1E06BE8BBCA
:104A50004D480838006800F440304FF4403191FA76
:104A6000A1F1B1FA81F1C840401C4700464808381E
:104A7000006800F070604FF0706191FAA1F1B1FA36
:104A800081F120FA01F847F6C07292FAA2F2B2FA66
:104A900082F2D4E90101914008430121C1EB5701A1
:104AA0004FF4403292FAA2F2B2FA82F291400843F5
:104AB0004FF0706191FAA1F1B1FA81F108FA01F1B8
:104AC00008434FF0E04292FAA2F200E007E0B2FAA7
:104AD00082F26169914008432B49083908602078C7
:104AE00000F00400042803D1206BB0F5801F08D02B
:104AF000207800F00800082862D1606BB0F5800FC4
:104B00005ED12148083800E0EDE0006800F4403054
:104B10004FF4403191FAA1F1B1FA81F1C840401C43
:104B2000470019480838006800F0E0404FF0E041C5
:104B300091FAA1F1B1FA81F120FA01F947F6C072B8
:104B400092FAA2F2B2FA82F2D4E90101914008434A
:104B50000121C1EB57014FF4403292FAA2F2B2FAAE
:104B600082F2914008434FF0706292FAA2F2B2FAD8
:104B700082F22169914008434FF0E04191FAA1F19E
:104B8000B1FA81F10CE000008C3802400070004066
:104B9000400E4742FFFCFF0FE01147420000474232
:104BA00009FA01F10843A9490860A84808300068DB
:104BB00020F01F00A16A491E0843A449083108607B
:104BC000208800F48060B0F5806F47D1206DB0F18F
:104BD000005F43D19D48006800F440304FF44031FD
:104BE00091FAA1F1B1FA81F1C840401C4FEA4008A6
:104BF0009648006800F0E0404FF0E04191FAA1F1E2
:104C0000B1FA81F120FA01F947F6C07292FAA2F2E4
:104C1000B2FA82F2D4E90101914008430122E1682D
:104C2000C2EB51014FF4403292FAA2F2B2FA82F290
:104C3000914008434FF0706191FAA1F1B1FA81F10E
:104C400008FA01F108434FF0E04191FAA1F1B1FAFD
:104C500081F109FA01F108437C490860208800F4D9
:104C60000060B0F5006F29D147F6C07292FAA2F247
:104C7000B2FA82F2D4E90101914008430122E168CD
:104C8000C2EB51014FF4403292FAA2F2B2FA82F230
:104C9000914008434FF0706292FAA2F2B2FA82F2A7
:104CA0002169914008434FF0E04292FAA2F2B2FA31
:104CB00082F26169914008436449086001206449B7
:104CC0008866FDF78DFF054606E0FDF789FF401B6E
:104CD000022801D90320CCE55C4884380068C0F381
:104CE000C0600028F1D0019801287DD100205849EA
:104CF0000867FDF775FF054606E0FDF771FF401BED
:104D0000022801D90320B4E5504884380068C0F374
:104D100040700028F1D1207800F00400042801D16F
:104D2000206B30B1207800F0080008283CD1606B7F
:104D3000D0BB4648001D006800F440304FF44031BD
:104D400091FAA1F1B1FA81F1C840401C4FEA400A42
:104D500047F6C07292FAA2F2B2FA82F2D4E90601E0
:104D6000914008430121C1EB5A014FF4403292FABD
:104D7000A2F2B2FA82F2914008434FF0706292FAC6
:104D8000A2F2B2FA82F2616A914008432F49091DEA
:104D90000860081D006820F4F851E06A401E41EAEE
:104DA00000202A4908310860208800F48070B0F59E
:104DB000807F34D1606DB0F1006F30D12348001D89
:104DC000006800F070604FF0706191FAA1F1B1FAE3
:104DD00081F120FA01FB47F6C07292FAA2F2B2FA10
:104DE00082F2D4E9060100E02EE09140084301225E
:104DF000216AC2EB51014FF4403292FAA2F2B2FAA8
:104E000082F2914008434FF0706191FAA1F1B1FA3A
:104E100081F10BFA01F108430C49091D08600120DA
:104E20000B490867FDF7DCFE054606E0FDF7D8FEF6
:104E3000401B022801D903201BE504488438006880
:104E4000C0F340700028F1D0002012E58438024001
:104E50000000474270B504460D4600266D480068C4
:104E600000F00F00A84209D26A490D700846006898
:104E700000F00F00A84201D0012070BD207800F0A2
:104E80000200022807D16448006820F0F000A16801
:104E9000084361490860207800F00100002877D0BD
:104EA0006068012807D15C4808380068C0F34040BA
:104EB000B8B90120E1E76068022802D060680328E1
:104EC00007D1554808380068C0F3406048B9012050
:104ED000D3E7514808380068C0F3400008B9012002
:104EE000CBE74D48006820F00300616808434A4959
:104EF0000860FDF775FE06466068012810D108E0DD
:104F0000FDF76EFE801B41F28831884201D90320F3
:104F1000B3E74148006800F00C000428F0D137E006
:104F20006068022810D108E0FDF75AFE801B41F2AC
:104F30008831884201D903209FE73748006800F094
:104F40000C000828F0D123E06068032810D108E0A5
:104F5000FDF746FE801B41F28831884201D90320CB
:104F60008BE72D48006800F00C000C28F0D10FE012
:104F700008E0FDF735FE801B41F28831884201D9F7
:104F800003207AE72448006800F00C000028F0D1E4
:104F90002048006800F00F00A84209D91D490D7093
:104FA0000846006800F00F00A84201D0012064E725
:104FB000207800F00400042807D11748006820F486
:104FC000E050E168084314490860207800F00800C8
:104FD000082808D11048006820F46040216940EAA0
:104FE000C1000D49086000F039F80B49096801F06B
:104FF000F001F02292FAA2F2B2FA82F2D140074A0C
:10500000515CC840064908600020FEF7C1FB002043
:1050100033E70000003C02400838024050C400085A
:1050200080000020014800687047000080000020D8
:1050300000B5FFF7F7FF0749096801F4E0514FF4A5
:10504000E05292FAA2F2B2FA82F2D140024A515CE4
:10505000C84000BD0838024050C40008F0B5002127
:105060000022002300240020464D2D6805F00C0589
:1050700035B1042D06D0082D06D00C2D7ED140E090
:1050800041487DE041487BE03E4D2D1F2D6805F0F5
:105090003F013C4D2D1F2D6805F4800585B13B4D2A
:1050A000B5FBF1F6374D2D1F2D6847F6C0773D4013
:1050B00097FAA7F7B7FA87F7FD4006FB05F20FE06E
:1050C000314DB5FBF1F62F4D2D1F2D6847F6C077FA
:1050D0003D4097FAA7F7B7FA87F7FD4006FB05F2C0
:1050E000284D2D1F2D6805F440354FF4403696FAB3
:1050F000A6F6B6FA86F6F5406D1C6B00B2FBF3F02F
:105100003EE0204D2D1F2D6805F03F011D4D2D1F48
:105110002D6805F4800585B11C4DB5FBF1F6194DE0
:105120002D1F2D6847F6C0773D4097FAA7F7B7FACD
:1051300087F7FD4006FB05F20FE0134DB5FBF1F6D6
:10514000104D2D1F2D6847F6C0773D4097FAA7F701
:10515000B7FA87F7FD4006FB05F20A4D2D1F2D68B3
:1051600005F0E0454FF0E04696FAA6F6B6FA86F668
:1051700025FA06F4B2FBF4F002E0FFE7024800BFB4
:1051800000BFF0BD083802400024F40040787D01E3
:1051900038B504460025207800F0010000286FD0C3
:1051A000FE48006800F00C0004281BD0FB48006893
:1051B00000F00C00082807D1F848001F006800F430
:1051C0008000B0F5800F0DD0F448006800F00C00AE
:1051D0000C2813D1F148001F006800F48000B0F5DE
:1051E000800F0BD1ED4808380068C0F3404000281C
:1051F00059D06068002856D1012038BD00BF6068D2
:10520000B0F5803F08D1E5480838006840F48030A8
:10521000E249083908601EE06068B0F5A02F0DD1A2
:10522000DE480838006840F48020DC49083908600E
:105230000846006840F4803008600CE0D748083821
:10524000006820F48030D5490839086008460068B5
:1052500020F48020086000BF606890B1FDF7C0FCBA
:10526000054606E0FDF7BCFC401B642801D903207D
:10527000C3E7CA4808380068C0F340400028F1D0AE
:1052800011E0FDF7ADFC054606E0FDF7A9FC401B6B
:10529000642801D90320B0E7C04808380068C0F38B
:1052A00040400028F1D1207800F00200022875D19A
:1052B000BA48006800F00C00B8B1B848006800F0C7
:1052C0000C00082805D1B548001F006800F48000D4
:1052D00058B1B248006800F00C000C2821D1AF484A
:1052E000001F006800F48000D8B9AC480838006896
:1052F000C0F3400020B1E068012801D001207CE724
:10530000A6480838006820F0F800F82292FAA2F2C5
:10531000B2FA82F2216991400843A0490839086035
:105320003CE0E06828B301209D490860FDF758FC87
:10533000054606E0FDF754FC401B022801D9032076
:105340005BE7964808380068C0F340000028F1D0B9
:1053500092480838006820F0F800F82292FAA2F289
:10536000B2FA82F22169914008438C4908390860F9
:1053700014E000208A490860FDF732FC054606E08B
:10538000FDF72EFC401B022801D9032035E7834896
:1053900008380068C0F340000028F1D1207800F000
:1053A000080008282CD16069A8B101207D49086057
:1053B000FDF716FC054606E0FDF712FC401B02282F
:1053C00001D9032019E775486C300068C0F340002C
:1053D0000028F1D014E0002072490860FDF700FCBD
:1053E000054606E0FDF7FCFB401B022801D903201F
:1053F00003E76A486C300068C0F340000028F1D130
:10540000207800F0040004287FD100BF0020009025
:1054100062483830006840F0805060493831086098
:105420000846006800F08050009000BF00BF5E4852
:10543000006840F480705C490860FDF7D1FB0546C8
:1054400006E0FDF7CDFB401B022801D90320D4E67E
:105450005548006800F480700028F2D000BFA068B2
:10546000012808D14D486830006840F001004B49E0
:10547000683108601DE0A06805280DD147486830F4
:10548000006840F00400454968310860084600683B
:1054900040F0010008600CE040486830006820F0EF
:1054A00001003E49683108600846006820F00400A9
:1054B000086000BFA068A0B1FDF792FB054608E0B8
:1054C000FDF78EFB401B41F28831884201D9032051
:1054D00093E6324868300068C0F340000028EFD0FF
:1054E00013E0FDF77DFB054608E0FDF779FB401B67
:1054F00041F28831884201D903207EE6274868308E
:105500000068C0F340000028EFD1A069F0B3234841
:10551000006800F00C0008287CD0A069022862D145
:1055200000201F490866FDF75BFB054606E0FDF716
:1055300057FB401B022801D903205EE617480838B4
:105540000068C0F340600028F1D1D4E907010843A6
:1055500047F6C07292FAA2F2B2FA82F2616A914000
:1055600008430122A16AC2EB51014FF4403292FA82
:10557000A2F2B2FA82F2914008434FF0706292FABE
:10558000A2F2B2FA82F2E16A914000E044E00843FC
:105590004FF0E04292FAA2F208E000000838024020
:1055A00000004742800E474200700040B2FA82F28B
:1055B000216B914008431949086001201849086689
:1055C000FDF70EFB054606E0FDF70AFB401B02282F
:1055D00001D9032011E61148001F0068C0F34060A4
:1055E0000028F1D018E000200D490866FDF7F8FA10
:1055F000054607E0FDF7F4FA401B022802D9032014
:10560000FBE507E00548001F0068C0F34060002884
:10561000F0D101E00120F0E50020EEE50438024081
:1056200000004742014691F85100704710B504460A
:105630000CB9012010BD606A00B900BF0021A16251
:1056400094F8510028B9002084F85000204600F05A
:1056500033F8022084F851002068006820F04000F0
:1056600021680860D4E901010843E1680843216921
:10567000084361690843218B01F400710843E16923
:105680000843216A0843A16A08432168086004218D
:10569000A06901EA1040616A0843216848602068F7
:1056A000C06920F400602168C861002060650120A5
:1056B00084F851000020BDE710B586B004462349A8
:1056C000206888421ED100BF00200090204800685A
:1056D00040F480501E4908600846006800F480507D
:1056E000009000BF00BF38200190022002900020EF
:1056F0000390032004900520059001A91548FDF7AB
:1057000065F921E01449206888421DD100BF0020BE
:1057100000900F48006840F400500D4908600846AA
:10572000006800F40050009000BF00BF64200190AA
:105730000220029000200390032004900520059091
:1057400001A90648FDF742F906B010BD003001403E
:10575000443802400004024000340140001002407E
:105760002DE9F84304460D4617461E464FF0000843
:10577000C14600BF94F85000012802D10220BDE8C4
:10578000F883012084F8500000BFFDF729FA804615
:1057900094F85100012802D04FF00209A9E005B1A8
:1057A00017B94FF00109A4E0032084F8510000204C
:1057B00060652563A786E786A063A087E0876064AD
:1057C0002064A068B0F5004F05D12068006840F45F
:1057D0008040216808602068006800F04000402890
:1057E00005D02068006840F0400021680860E0684B
:1057F000B0F5006F2AD1606810B1E08E012806D1A3
:1058000028882168C860AD1CE08E401EE08619E043
:105810002068806800F00200022807D128882168EB
:10582000C860AD1CE08E401EE0860BE03EB1701CEF
:1058300040B1FDF7D5F9A0EB0800B04202D34FF01C
:10584000030956E0E08E0028E2D129E0606810B13B
:10585000E08E012806D12878216808736D1CE08E3F
:10586000401EE08619E02068806800F002000228EF
:1058700007D12878216808736D1CE08E401EE086F1
:105880000BE03EB1701C40B1FDF7AAF9A0EB080097
:10589000B04202D34FF003092BE0E08E0028E2D1A2
:1058A0003346012202212046CDF8008001F06FFB33
:1058B00010B14FF003091CE042463146204601F08A
:1058C00052FB20B14FF001092020606511E0A06873
:1058D00050B900BF002000902068C0680090206888
:1058E0008068009000BF00BF606D08B14FF00109F3
:1058F00000BF012084F8510000BF002084F8500050
:1059000000BF48463BE72DE9FE4F04460D461646CC
:105910001F46DDF830804FF0000A002002908146DB
:105920004FF0010B019000BF94F85000012802D104
:105930000220BDE8FE8F012084F8500000BFFDF773
:105940004FF9814694F851A060680290BAF1010FB6
:105950000BD00298B0F5827F04D1A06810B9BAF1DB
:10596000040F02D002200190D2E00DB106B117B9A8
:1059700001200190CCE094F85100012802D10520CB
:1059800084F8510000206065A663E787A787256338
:10599000E786A786206460642068006800F0400005
:1059A000402805D02068006840F040002168086069
:1059B000E068B0F5006F43D1606810B1E08E012857
:1059C00006D128882168C860AD1CE08E401EE086A4
:1059D0002FE0BBF1000F10D0E08E70B1206880681E
:1059E00000F00200022808D128882168C860AD1C98
:1059F000E08E401EE0864FF0000BE08F68B120681B
:105A0000806800F0010040B12068C0683080B61C9A
:105A1000E08F401EE0874FF0010B08F1010040B11C
:105A2000FDF7DEF8A0EB0900404502D3032001900A
:105A30006EE0E08E0028CCD1E08F0028C9D142E092
:105A4000606810B1E08E012806D1287821680873BB
:105A50006D1CE08E401EE0862FE0BBF1000F10D0E1
:105A6000E08E70B12068806800F00200022808D142
:105A700015F8010B21680873E08E401EE0864FF098
:105A8000000BE08F68B12068806800F0010040B131
:105A90002068C06806F8010BE08F401EE0874FF0D9
:105AA000010B08F1010040B1FDF79AF8A0EB0900E5
:105AB000404502D3032001902AE0E08E0028CCD19B
:105AC000E08F0028C9D14346012202212046CDF8AB
:105AD000009001F05CFA10B10320019018E04A46F2
